:100000000C9434000C943E000C943E000C943E0082
:100010000C943E000C943E000C943E000C943E0068
:100020000C943E000C943E000C943E000C943E0058
:100030000C943E000C943E000C943E000C943E0048
:100040000C943E000C943E000C943E000C943E0038
:100050000C943E000C943E000C943E000C943E0028
:100060000C943E000C943E0011241FBECFEFD8E04C
:10007000DEBFCDBF0E9440000C9457000C940000DE
:1000800082E084B915B880E090E022E007C0EFE399
:10009000FFE13197F1F700C0000001968A3F91051A
:1000A000B4F385B1822785B980E090E0F7CFF8946A
:0200B000FFCF80
:00000001FF
